:0E0000000C9446000C9400000C9400000C942C
:10000E0000000C9400000C9400000C9400000C9462
:10001E0000000C9400000C9400000C9400000C9452
:10002E0000000C9400000C9400000C9400000C9442
:10003E0000000C9400000C9400000C9400000C9432
:10004E0000000C940000000A0011110E0000040ABA
:10005E0000151F000000000200051F00080000012F
:10006E00030303000000446973706C6179206461BE
:10007E00793A000080C00200600182000000F8940E
:10008E00EE27ECBBF1E0FBBFEBBFE5BF8DE0A2E0DE
:10009E00BB27ED938A95E9F780E094E0A0E6ED9317
:1000AE000197E9F7E4E8F0E085919591009761F00A
:1000BE00A591B59105901590BF01F00105900D9297
:1000CE000197E1F7FB01F0CFEFE5EDBFE4E0EEBF06
:1000DE00C0E6D1E00C949000AA931A930A93EA8199
:1000EE00EE0FEE0FEE0FE0640E2F10E0183068F4F6
:1000FE000A930395EC81FD813196EC83FD83319754
:10010E00A4910E9415011F5FF1CF198108812596D8
:10011E000895E0E0EABBEBBBE7BBE8BBE4BBE5BBA5
:10012E00E1BBE2BBE3BFE2BFECBFEFBDEEBDEDBD99
:10013E00ECBDE7BDE6BDEBBDEABDE9BDE8BDE2BD88
:10014E00E5BDE4BDE3BDE9BFE5BFE4BFEAB9E0E864
:10015E00E8B9E0E0E0BFE6B9EDB9E6BFA0E10E9484
:10016E008E01E4E5F0E0FA93EA93A0E0B5DFECE56A
:10017E00F0E0FA93EA93A1E0AFDFE4E6F0E0FA9361
:10018E00EA93A2E0A9DFECE6F0E0FA93EA93A3E0AB
:10019E00A3DFE0E0EA93A0E00E943101A4E7B0E023
:1001AE000E946A01A3E00E945001A2E00E94500149
:1001BE00A1E00E945001A0E00E945001FFCFFFCFAE
:1001CE00FFE0FA95F1F70895AAB3AF70AABBD99ADA
:1001DE00D898F6DFDA9AF4DFA9B3DA98F1DFDA9A73
:1001EE00EFDFDA98A7FDF5CF0895A07FAB2BABBB61
:1001FE00DA9A0E94E700DA980E94E7000895AA931F
:10020E00D998AAB3A76FAABBBBB3BF70A881EDDF05
:10021E00A881A295EADFD99A0C94B901AA930E94FB
:10022E00EB00A9810E94BB01D89AA881E8DF20C00B
:10023E00DA9A0E94E700E9B3DA980E94E700E07FBD
:10024E0008950E94E700F4DFAE2FF2DFD998E29511
:10025E00EA2B0895AA930E94EB00E881F0E0E05AA1
:10026E00FE4FE081A981AE0F0E94060159804880A1
:10027E00229608950E94EB00A2E00E94BB01ACE022
:10028E000E94BB01A1E00E940601E0E04E2E5E2E10
:10029E000895AA93EF93FF93A8816894AA3019F05A
:1002AE00E894571430F04394E0E0EA93A42DD2DFA3
:1002BE0036F0539489DFD89AA8810E940601FF91E7
:1002CE00EF910C94B901BA93AA931A93E981FA812A
:1002DE003196E983FA833197E4911E2FE03019F0BD
:1002EE00A12FD7DFF3CF188123960895AA27BB2716
:1002FE001197F1F70895AA93D998AAB3A76FAABB3D
:10030E00BBB3BF70A8810E94FC00D99A2BC0AA93E0
:10031E00DA98D8987880E881E058E0936201E88115
:10032E00E054E093630124D023D022D0DFDFA0E29B
:10033E00E2DFDCDFA8E220D0A4E01ED0A5E81CD0CE
:10034E00AAB3AF70AABBD99A0E942801E53011F06A
:10035E00E0E008C00E94EB00A6E00E9406010E94A9
:10036E004101E1E0219608950E9406010C94EB00F4
:10037E000E947D01A0E3BFCF0E9406010C947D0177
:00000001FF
