:040000000C94430019
:100004000C9400000C9400000C9400000C9400006C
:100014000C9400000C9400000C9400000C9400005C
:100024000C9400000C9400000C9400000C9400004C
:100034000C9400000C9400000C9400000C9400003C
:100044000C9400000C9400000C9400000C9400002C
:1000540000000000000000001F000000000000007D
:100064001F1F0000000000001F1F1F0000000000F1
:100074001F1F1F1F0000000080C0020060017C00E1
:100084000000F894EE27ECBBF1E0FBBFEBBFE5BF4B
:100094008DE0A2E0BB27ED938A95E9F780E094E038
:1000A400A0E6ED930197E9F7EEE7F0E085919591ED
:1000B400009761F0A591B59105901590BF01F001ED
:1000C40005900D920197E1F7FB01F0CFEFE5EDBF4D
:1000D400E4E0EEBFC0E6D1E00C948C00AA931A933E
:1000E4000A93EA81EE0FEE0FEE0FE0640E2F10E09C
:1000F400153060F40A930395EC81FD813196EC830D
:10010400FD833197A4919FD01F5FF2CF198108819D
:1001140025960895E0E0EABBEBBBE7BBE8BBE4BB94
:10012400E5BBE1BBE2BBE3BFE2BFECBFEFBDEEBDAD
:10013400EDBDECBDE7BDE6BDEBBDEABDE9BDE8BD87
:10014400E2BDE5BDE4BDE3BDE9BFE5BFE4BFEAB997
:10015400E0E8E8B9E0E0E0BFE6B9EDB9E6BFA4E164
:10016400A5D0E4E5F0E0FA93EA93A0E0B7DFECE58C
:10017400F0E0FA93EA93A1E0B1DFE4E6F0E0FA9369
:10018400EA93A2E0ABDFECE6F0E0FA93EA93A3E0B3
:10019400A5DFE4E7F0E0FA93EA93A4E09FDF4424C8
:1001A4005524E4E1F0E04E165F065CF566247724FE
:1001B40088249924E4E0F0E0E815F9052CF0A1D0B6
:1001C400F40131964F01F6CF44245524E3E0F0E0E6
:1001D4004E165F0694F46624772488249924E2E07A
:1001E400F0E0E815F9052CF08CD0F40131964F01BC
:1001F400F6CFF20131962F01E9CFF20131962F01AA
:10020400D0CFCDCFFFCFAA93EBB3EF70AE2FE88161
:10021400E07FEA2BEBBB8DE08A95F1F7DA9A8DE06B
:100224008A95F1F7DA988DE08A95F1F768C0AA9378
:10023400A881E9DFE881E295E883A881E4DF85E825
:100244008A95F1F75CC0AA93A981F1DFD89AA881B5
:10025400EEDFD8980BC0AA93E881F0E0E05AFE4F95
:10026400E081A981AE0FE3DFB980A88022960895CA
:10027400A2E050D0ACE0DBDFA1E04CD0E0E0AE2E59
:10028400BE2E0895AA93A881AA3011F0BD1440F09F
:10029400E0E0EA93A394AA2DDEDFA881AA3079F1E5
:1002A400B394D89AA881C3DFD89829C0AA93EAB393
:1002B400E06FEABBD29AD09AD19ADA98D898D998B2
:1002C400D880E881E058E0936201E881E054E0934B
:1002D4006301A4E1B0E00E94980121D020D01FD096
:1002E400A0E291DF88EC90E00197F1F7A8E29FDFAC
:1002F400A4E09DDFA5E89BDFA6E099DFB9DF2196A6
:1003040008954A92A62DA7DFA82DBCDFA5E0B0E092
:100314000C9498018CDFA3E0B0E00C949801A0E366
:1003240072DF88EC90E00197F1F70895109639F0A8
:1003340080ED97E00197F1F7A8951197C9F7089513
:00000001FF
