:060000000C944F000C946B
:1000060000000C9400000C9400000C9400000C946A
:1000160000000C9400000C9400000C9400000C945A
:1000260000000C9400000C9400000C9400000C944A
:1000360000000C9400000C9400000C9400000C943A
:1000460000000C9400000C9400000C9400001010AA
:1000560010101010101018181818181818181E1E3E
:100066001E1E1E1E1E1E1F1F1F1F1F1F1F1F0101DC
:10007600010101010101030303030303030307074E
:10008600070707070707000000000000000080C000
:100096000200600194000000F894EE27ECBBF1E04A
:1000A600FBBFEBBFE5BF8DE0A2E0BB27ED938A95D2
:1000B600E9F780E094E0A0E6ED930197E9F7E6E939
:1000C600F0E085919591009761F0A591B591059025
:1000D6001590BF01F00105900D920197E1F7FB0124
:1000E600F0CFEFE5EDBFE4E0EEBFC0E6D1E00C9463
:1000F6009800AA931A930A93EA81EE0FEE0FEE0F79
:10010600E0640E2F10E0183060F40A930395EC813A
:10011600FD813196EC83FD833197A491E1D01F5F79
:10012600F2CF1981088125960895E0E0EABBEBBB82
:10013600E7BBE8BBE4BBE5BBE1BBE2BBE3BFE2BFB9
:10014600ECBFEFBDEEBDEDBDECBDE7BDE6BDEBBD65
:10015600EABDE9BDE8BDE2BDE5BDE4BDE3BDE9BF7D
:10016600E5BFE4BFEAB9E0E8E8B9E0E0E0BFE6B938
:10017600EDB9E6BFA4E1E7D0E4E5F0E0FA93EA934F
:10018600A0E0B7DFECE5F0E0FA93EA93A1E0B1DF97
:10019600E4E6F0E0FA93EA93A2E0ABDFECE6F0E007
:1001A600FA93EA93A3E0A5DFE4E7F0E0FA93EA9393
:1001B600A4E09FDFECE7F0E0FA93EA93A5E099DF8D
:1001C600E4E8F0E0FA93EA93A6E093DFECE8F0E0E7
:1001D600FA93EA93A7E08DDFE3E1F0E03F014424E0
:1001E6005524E9E0F0E0E415F5053CF1D7D0A0E0B0
:1001F600D8D0A4E0DAD0A0E0DCD0A4E0DED0A1E044
:10020600D0D0A5E0D2D0A1E0D4D0A5E0D6D0A2E04F
:10021600C8D0A6E0CAD0A2E0CCD0A6E0CED0A3E05B
:10022600C0D0A3E0C2D0A3E0C4D0A3E0CCD0319725
:100236003F01F20131962F01D4CFEAE0F0E03F0111
:10024600E9E0F0E02F010024401450043CF1A6D070
:10025600A3E0A7D0A3E0A9D0A3E0ABD0A3E0ADD0A4
:10026600A2E09FD0A6E0A1D0A2E0A3D0A6E0A5D0B0
:10027600A1E097D0A5E099D0A1E09BD0A5E09DD0C4
:10028600A7E08FD0A7E091D0A7E093D0A7E09BD0BE
:1002960031963F01F20131972F01D5CF9DCFFFCF88
:1002A600AA93EBB3EF70AE2FE881E07FEA2BEBBBAE
:1002B6008DE08A95F1F7DA9A8DE08A95F1F7DA986A
:1002C6008DE08A95F1F768C0AA93A881E9DFE881F5
:1002D600E295E883A881E4DF85E88A95F1F75CC0BA
:1002E600AA93A981F1DFD89AA881EEDFD8980BC02E
:1002F600AA93E881F0E0E05AFE4FE081A981AE0FB3
:10030600E3DF9980888022960895A2E063D0ACE06E
:10031600DBDFA1E05FD0E0E08E2E9E2E0895AA934B
:10032600A881AA3011F09B1440F0E0E0EA93839490
:10033600A82DDEDFA881AA3079F19394D89AA881F6
:10034600C3DFD89829C0AA93EAB3E06FEABBD29A72
:10035600D09AD19ADA98D898D998B880E881E05896
:10036600E0936201E881E054E0936301A4E1B0E028
:100376000E94F90134D033D032D0A0E291DF88EC6C
:1003860090E00197F1F7A8E29FDFA4E09DDFA5E8E2
:100396009BDFA6E099DFB9DF219608954A92A0E097
:1003A600A7CFBDDF6A92A0E0A3CFB9DF4A92A1E052
:1003B6009FCFB5DF6A92A1E09BCFB1DFA1E0B0E0AD
:1003C6000E94F901EBCFABDFA1E0B0E00E94F9019A
:1003D600F301089579DFA3E0B0E00C94F901A0E3FE
:1003E6005FDF88EC90E00197F1F70895109639F0F9
:1003F60080ED97E00197F1F7A8951197C9F7089551
:00000001FF
