:060000000C9433000C9487
:1000060000000C9400000C9400000C9400000C946A
:1000160000000C9400000C9400000C9400000C945A
:1000260000000C9400000C9400000C9400000C944A
:1000360000000C9400000C9400000C9400000C943A
:1000460000000C9400000C9400000C940000370093
:10005600380039002F0080C0020060015C000000FB
:10006600F894EE27ECBBF1E0FBBFEBBFE5BF8DE0FC
:10007600A2E0BB27ED938A95E9F780E094E0A0E63D
:10008600ED930197E9F7EEE5F0E0859195910097FC
:1000960061F0A591B59105901590BF01F00105900D
:1000A6000D920197E1F7FB01F0CFEFE5EDBFE4E03C
:1000B600EEBFC0E6D1E00C946000E0E0EABBEBBB2B
:1000C600E7BBE8BBE4BBE5BBE1BBE2BBE3BFE2BF2A
:1000D600ECBFEFBDEEBDEDBDECBDE7BDE6BDEBBDD6
:1000E600EABDE9BDE8BDE2BDE5BDE4BDE3BDE9BFEE
:1000F600E5BFE4BFEAB9E0E8E8B9E0E0E0BFE6B9A9
:10010600EDB9E6BFA4E190D0EFE0E4BBE0EFE5BBDC
:1001160044245524E9E0F0E0E415F50524F1A89817
:10012600A99AAA9AAB9AA1E0B0E00E9451019C99C3
:1001360004C0A5D0A4E5B0E064D09D9904C09FD0CA
:10014600A6E5B0E05ED09E9904C099D0A8E5B0E0DF
:1001560058D09F9904C093D0AAE5B0E052D0F201DE
:1001660031962F01D7CFD4CFFFCFAA93EBB3EF7041
:10017600AE2FE881E07FEA2BEBBB8DE08A95F1F7A5
:10018600DA9A8DE08A95F1F7DA988DE08A95F1F79B
:1001960074C0AA93A881E9DFE881E295E883A88183
:1001A600E4DF85E88A95F1F768C0AA93E881F0E074
:1001B600E05AFE4FE081A981AE0FEBDF79806880BF
:1001C60022960895A2E05ED0ACE0E3DFA1E05AD02B
:1001D600E0E06E2E7E2E0895AA93A881AA3011F033
:1001E600791448F0E0E0EA936394A62DDEDFA88157
:1001F600AA3009F442C07394D89AA881CADFD89865
:100206003CC0BA93AA931A93E981FA813196E9839D
:10021600FA833197E4911E2FE03019F0A12FDCDF2D
:10022600F3CF188123960895AA93EAB3E06FEABB49
:10023600D29AD09AD19ADA98D898D9989880E881A3
:10024600E058E0936201E881E054E0936301A4E1A1
:10025600B0E00E9451011BD01AD019D0A0E285DF70
:1002660088EC90E00197F1F7A8E293DFA4E091DF34
:10027600A5E88FDFA6E08DDFA5DF219608954A92D7
:10028600A0E093CF86DFA3E0B0E00C945101A0E399
:100296006CDF88EC90E00197F1F70895109639F03D
:1002A60080ED97E00197F1F7A8951197C9F70895A2
:00000001FF
