:080000000C943B000C9400007D
:100008000C9400000C9400000C9400000C94000068
:100018000C9400000C9400000C9400000C94000058
:100028000C9400000C9400000C9400000C94000048
:100038000C9400000C9400000C9400000C94000038
:100048000C9400000C9400000C9400003100320065
:1000580033003400350036003700380039002A00F4
:100068003000230080C0020060016C000000F8949A
:10007800EE27ECBBF1E0FBBFEBBFE5BF8DE0A2E0F4
:10008800BB27ED938A95E9F780E094E0A0E6ED932D
:100098000197E9F7EEE6F0E085919591009761F018
:1000A800A591B59105901590BF01F00105900D92AD
:1000B8000197E1F7FB01F0CFEFE5EDBFE4E0EEBF1C
:1000C800C0E6D1E00C946800E0E0EABBEBBBE7BB1C
:1000D800E8BBE4BBE5BBE1BBE2BBE3BFE2BFECBF0F
:1000E800EFBDEEBDEDBDECBDE7BDE6BDEBBDEABDC8
:1000F800E9BDE8BDE2BDE5BDE4BDE3BDE9BFE5BFDF
:10010800E4BFEAB9E0E8E8B9E0E0E0BFE6B9EDB994
:10011800E6BFA0E1FBD0EFE0E4BBE0E7E5BB4424A9
:100128005524A898A99AAA9AAB9A9C9904C09D9B11
:1001380002C09E9901C004C014D1A4E5B0E015D155
:100148009C9B04C09D9902C09E9901C004C009D11E
:10015800A6E5B0E00AD19C9B04C09D9B02C09E9B73
:1001680001C004C0FED0A8E5B0E0FFD0A89AA998C5
:10017800AA9AAB9A9C9904C09D9B02C09E9901C003
:1001880004C0EFD0AAE5B0E0F0D09C9B04C09D99D4
:1001980002C09E9901C004C0E4D0ACE5B0E0E5D04F
:1001A8009C9B04C09D9B02C09E9B01C004C0D9D0EB
:1001B800AEE5B0E0DAD0A89AA99AAA98AB9A9C9929
:1001C80004C09D9B02C09E9901C004C0CAD0A0E68D
:1001D800B0E0CBD09C9B04C09D9902C09E9901C001
:1001E80004C0BFD0A2E6B0E0C0D09C9B04C09D9BD9
:1001F80002C09E9B01C004C0B4D0A4E6B0E0B5D054
:10020800A89AA99AAA9AAB989C9904C09D9B02C0E7
:100218009E9901C004C0A5D0A6E6B0E0A6D09C9BDC
:1002280004C09D9902C09E9901C004C09AD0A8E656
:10023800B0E09BD09C9B04C09D9B02C09E9B01C0CC
:1002480004C08FD0AAE6B0E090D06BCFFFCFAA93BE
:10025800EBB3EF70AE2FE881E07FEA2BEBBB8DE0CC
:100268008A95F1F7DA9A8DE08A95F1F7DA988DE0B8
:100278008A95F1F774C0AA93A881E9DFE881E2952D
:10028800E883A881E4DF85E88A95F1F768C0AA9336
:10029800E881F0E0E05AFE4FE081A981AE0FEBDF84
:1002A8007980688022960895A2E064D0ACE0E3DF0C
:1002B800A1E060D0E0E06E2E7E2E0895AA93A8817A
:1002C800AA3011F0791448F0E0E0EA936394A62D7F
:1002D800DEDFA881AA3009F442C07394D89AA881B5
:1002E800CADFD8983CC0BA93AA931A93E981FA81D5
:1002F8003196E983FA833197E4911E2FE03019F0A3
:10030800A12FDCDFF3CF188123960895AA93EAB3CF
:10031800E06FEABBD29AD09AD19ADA98D898D9984D
:100328009880E881E058E0936201E881E054E09326
:100338006301A4E1B0E00E94CA0121D020D01FD0FF
:10034800A0E285DF88EC90E00197F1F7A8E293DF5F
:10035800A4E091DFA5E88FDFA6E08DDFA5DF219679
:100368000895E0E0EA93A0E092CFBDDFAEE1B0E00F
:100378000C94CA0180DFA3E0B0E00C94CA01A0E3AA
:1003880066DF88EC90E00197F1F70895109639F050
:1003980080ED97E00197F1F7A8951197C9F70895AF
:00000001FF
