:020000000C945E
:1000020038000C9465000C947C000C9400000C9455
:1000120000000C9400000C9400000C9400000C945E
:1000220000000C9400000C9400000C9400000C944E
:1000320000000C9400000C9400000C9400000C943E
:1000420000000C9400000C9400000C9400000C942E
:1000520000004000F90024003000190012000200E4
:10006200F800000010001300600154000000F89432
:10007200EE27ECBBF1E0FBBFEBBFE5BF8DE0A2E0FA
:10008200BB27ED938A95E9F780E094E0A0E6ED9333
:100092000197E9F7E8E6F0E085919591009761F024
:1000A200A591B59105901590BF01F00105900D92B3
:1000B2000197E1F7FB01F0CFEFE5EDBFE4E0EEBF22
:1000C200C0E6D1E00C949400AA93BA93EA93FA930F
:1000D200EFB7EA93E9E0F0E04E165F061CF4F20196
:1000E200319654D0829BFECFE991EFBFF991E9910D
:1000F200B991A99118950A92AA93BA93EA93FA939D
:10010200EFB7EA930024041405041CF4F2013197BA
:100112003DD0839BFECFE991EFBFF991E991B9916F
:10012200A99109901895EFEFEABBE0E0EBBBE7BBC2
:10013200E8BBE4BBE5BBE1BBE2BBE3BFE2BFECBFB4
:10014200EFBDEEBDEDBDECBDE7BDE6BDEBBDEABD6D
:10015200E9BDE8BDE2BDE5BDE4BDE3BDE9BFEBB786
:10016200E06CEBBFE0E0E5BFE4BFE0ECEABFE0E05B
:10017200EAB9E0E8E8B9E0E0E0BFE6B9EDB9E6BF28
:100182007894E0916001EBBBFFCFFFCF2F01A0E697
:10019200B1E0EE0FFF1FAE0FBF1FEC91EBBB089556
:00000001FF
