:080000000C942F000C94000089
:100008000C9400000C9400000C9400000C94000068
:100018000C9400000C9400000C9400000C94000058
:100028000C9400000C9400000C9400000C94000048
:100038000C9400000C9400000C9400000C94000038
:100048000C9400000C9400000C94000080C0020086
:10005800600154000000F894EE27ECBBF1E0FBBF10
:10006800EBBFE5BF8DE0A2E0BB27ED938A95E9F7EA
:1000780080E094E0A0E6ED930197E9F7E6E5F0E08B
:1000880085919591009761F0A591B591059015908E
:10009800BF01F00105900D920197E1F7FB01F0CF48
:1000A800EFE5EDBFE4E0EEBFC0E6D1E00C945C0004
:1000B800E0E0EABBEBBBE7BBE8BBE4BBE5BBE1BB0D
:1000C800E2BBE3BFE2BFECBFEFBDEEBDEDBDECBDF3
:1000D800E7BDE6BDEBBDEABDE9BDE8BDE2BDE5BDF6
:1000E800E4BDE3BDE9BFE5BFE4BFEAB9E0E8E8B9CC
:1000F800E0E0E0BFE6B9EDB9E6BFA0E187D0EFE008
:10010800E4BBE0E7E5BBA898A99AAA9AAB9A9D999F
:1001180017C09D9915C0A5D09D9904C0E1E65E2E33
:10012800A0D0A2D09D9904C0E2E65E2E9AD09CD0C1
:100138009D9904C0E3E65E2E94D096D09BD0E9CF7B
:100148009E9917C09E9915C08CD09E9904C0E4E66C
:100158005E2E87D089D09E9904C0E5E65E2E81D0B8
:1001680083D09E9904C0E6E65E2E7BD07DD082D0F7
:10017800E9CFC9CFFFCFAA93EBB3EF70AE2FE881D9
:10018800E07FEA2BEBBB8DE08A95F1F7DA9A8DE0F8
:100198008A95F1F7DA988DE08A95F1F760C0AA930D
:1001A800A881E9DFE881E295E883A881E4DF85E8B2
:1001B8008A95F1F754C0AA93E881F0E0E05AFE4F1F
:1001C800E081A981AE0FEBDF4980988022960895DF
:1001D800A2E058D0ACE0E3DFA1E054D0E0E09E2EEE
:1001E8004E2E0895AA93A881AA3011F0481440F021
:1001F800E0E0EA939394A92DDEDFA881AA3079F193
:100208004394D89AA881CBDFD89829C0AA93EAB397
:10021800E06FEABBD29AD09AD19ADA98D898D9984E
:100228008880E881E058E0936201E881E054E09337
:100238006301A4E1B0E00E94520129D028D027D060
:10024800A0E299DF88EC90E00197F1F7A8E2A7DF38
:10025800A4E0A5DFA5E8A3DFA6E0A1DFB9DF21962A
:1002680008956A92A0E0A7CFA52DBCDFA2E3B0E075
:100278000C945201A4E6B0E00E945201F3013196B9
:100288003F0108958CDFA3E0B0E00C945201A0E395
:1002980072DF88EC90E00197F1F70895109639F035
:1002A80080ED97E00197F1F7A8951197C9F70895A0
:00000001FF
