:040000000C942A0032
:100004000C9400000C9400000C9400000C9400006C
:100014000C9400000C9400000C9400000C9400005C
:100024000C9400000C9400000C9400000C9400004C
:100034000C9400000C9400000C9400000C9400003C
:100044000C9400000C9400000C9400000C9400002C
:10005400F894EE27ECBBF1E0FBBFEBBFE5BF8DE00E
:10006400A2E0BB27ED938A95E9F780E094E0A0E64F
:10007400ED930197E9F7EFE5EDBFE4E0EEBFC0E6ED
:10008400D1E00C946D0044245524EEE1F0E0E41535
:10009400F50564F0B09B02C0E1E3E5BBA4E1B0E088
:1000A4000E94A800F20131962F01EFCF0895442455
:1000B4005524EAE0F0E0E415F50564F0B09B02C0D5
:1000C400E1E3E5BBA4E1B0E00E94A800F2013196AF
:1000D4002F01EFCF0895E0E0EABBEBBBE7BBE8BB41
:1000E400EFEFE4BBE0E0E5BBE1BBE2BBE3BFE2BFB3
:1000F400ECBFEFBDEEBDEDBDECBDE7BDE6BDEBBDB8
:10010400EABDE9BDE8BDE2BDE5BDE4BDE3BDE9BFCF
:10011400E5BFE4BFEAB9E0E8E8B9E0E0E0BFE6B98A
:10012400EDB9E6BFE5B3E13349F0E6E8E5BBABDFA3
:10013400E5B3E13319F0EAE8E5BBB9DFE1E3E5BB98
:10014400A2DFE1E5E5BBB3DFEDCFFFCF109639F0D9
:1001540080ED97E00197F1F7A8951197C9F70895F5
:00000001FF
