:080000000C944D000C9400006B
:100008000C9400000C9400000C9400000C94000068
:100018000C9400000C9400000C9400000C94000058
:100028000C9400000C9400000C9400000C94000048
:100038000C9400000C9400000C9400000C94000038
:100048000C9400000C9400000C9400000709011F98
:10005800000A0400040A1509160000000202020240
:1000680003000000020102041800000037003800F5
:1000780039002F00350036002A00310032003300E5
:100088002D0030003D002B0080C002006001900070
:100098000000F894EE27ECBBF1E0FBBFEBBFE5BF37
:1000A8008DE0A2E0BB27ED938A95E9F780E094E024
:1000B800A0E6ED930197E9F7E2E9F0E085919591E3
:1000C800009761F0A591B59105901590BF01F001D9
:1000D80005900D920197E1F7FB01F0CFEFE5EDBF39
:1000E800E4E0EEBFC0E6D1E00C949600AA931A9320
:1000F8000A93EA81EE0FEE0FEE0FE0640E2F10E088
:10010800183060F40A930395EC81FD813196EC83F5
:10011800FD833197A491E2D01F5FF2CF1981088146
:1001280025960895E0E0EABBEBBBE7BBE8BBE4BB80
:10013800E5BBE1BBE2BBE3BFE2BFECBFEFBDEEBD99
:10014800EDBDECBDE7BDE6BDEBBDEABDE9BDE8BD73
:10015800E2BDE5BDE4BDE3BDE9BFE5BFE4BFEAB983
:10016800E0E8E8B9E0E0E0BFE6B9EDB9E6BFA0E154
:10017800FCD0E4E5F0E0FA93EA93A0E0B7DFECE521
:10018800F0E0FA93EA93A1E0B1DFE4E6F0E0FA9355
:10019800EA93A2E0ABDFECE6F0E0FA93EA93A3E09F
:1001A800A5DFEFE0E4BBE0EFE5BBA898A99A08D18A
:1001B8009C9904C00BD1A4E7B0E0C4D09D9904C0B9
:1001C80005D1A6E7B0E0BED09E9904C0FFD0A8E74D
:1001D800B0E0B8D09F9904C0F9D0AAE7B0E0B2D097
:1001E800A89AA998EDD09C9909C0F0D0A3E095D021
:1001F800A2E093D0A1E091D0A0E08FD09D9904C057
:10020800E5D0ACE7B0E09ED09E9904C0DFD0AEE761
:10021800B0E098D09F9904C0D9D0A0E8B0E092D0BF
:10022800A89AA99AAA98AB9AA1E0B0E00E94FA010C
:100238009C9904C0CBD0A2E8B0E084D09D9904C0BA
:10024800C5D0A4E8B0E07ED09E9904C0BFD0A6E88F
:10025800B0E078D09F9904C0B9D0A8E8B0E072D0D7
:10026800A89AA99AAA9AAB98A1E0B0E00E94FA01CC
:100278009C9B49D09D9904C0A9D0AAE8B0E062D05F
:100288009E9904C0A3D0ACE8B0E05CD09F9904C0AC
:100298009DD0AEE8B0E056D088CFFFCFAA93EBB39D
:1002A800EF70AE2FE881E07FEA2BEBBB8DE08A95FB
:1002B800F1F7DA9A8DE08A95F1F7DA988DE08A9568
:1002C800F1F77CC0AA93A881E9DFE881E295E88389
:1002D800A881E4DF85E88A95F1F770C0AA93A9811F
:1002E800F1DFD89AA881EEDFD8980BC0AA93E881ED
:1002F800F0E0E05AFE4FE081A981AE0FE3DF5980BC
:10030800488022960895A2E065D0ACE0DBDFA1E04A
:1003180061D0E0E04E2E5E2E0895AA93A881AA30FF
:1003280011F0571448F0E0E0EA934394A42DDEDF7F
:10033800A881AA3009F442C05394D89AA881C2DF90
:10034800D8983CC0BA93AA931A93E981FA81319656
:10035800E983FA833197E4911E2FE03019F0A12F39
:10036800DCDFF3CF188123960895AA93EAB3E06FF0
:10037800EABBD29AD09AD19ADA98D898D998788044
:10038800E881E058E0936201E881E054E09363017A
:10039800A4E1B0E00E94FA0122D021D020D0A0E24E
:1003A8007DDF88EC90E00197F1F7A8E28BDFA4E00D
:1003B80089DFA5E887DFA6E085DFA5DF2196089518
:1003C800AA9AAB9AA1E0B0E00C94FA01E0E0EA93B3
:1003D800A0E08CCF77DFA3E0B0E00C94FA01A0E3B3
:1003E8005DDF88EC90E00197F1F70895109639F0F9
:1003F80080ED97E00197F1F7A8951197C9F708954F
:00000001FF
