:0A0000000C942F000C9400000C94E7
:10000A0000000C9400000C9400000C9400000C9466
:10001A0000000C9400000C9400000C9400000C9456
:10002A0000000C9400000C9400000C9400000C9446
:10003A0000000C9400000C9400000C9400000C9436
:10004A0000000C9400000C94000080C002006001C3
:10005A0054000000F894EE27ECBBF1E0FBBFEBBFC5
:10006A00E5BF8DE0A2E0BB27ED938A95E9F780E032
:10007A0094E0A0E6ED930197E9F7E6E5F0E08591D3
:10008A009591009761F0A591B59105901590BF01E2
:10009A00F00105900D920197E1F7FB01F0CFEFE532
:1000AA00EDBFE4E0EEBFC0E6D1E00C945C00E0E016
:1000BA00EABBEBBBE7BBE8BBEFE0E4BBE0E0E5BBD8
:1000CA00E1BBE2BBE3BFE2BFECBFEFBDEEBDEDBDFE
:1000DA00ECBDE7BDE6BDEBBDEABDE9BDE8BDE2BDED
:1000EA00E5BDE4BDE3BDE9BFE5BFE4BFEAB9E0E8C9
:1000FA00E8B9E0E0E0BFE6B9EDB9E6BFA0E16FD04C
:10010A0066247724A898A99AAA9AAB9A9D991AC0A4
:10011A009D9918C06A92A0E037D09D990BC0E1E67C
:10012A005E2E6A92A0E030D0A52D45D0A2E3B0E0C1
:10013A000E942B01A4E6B0E00E942B01F301319644
:10014A003F01E6CFDFCFFFCFAA93EBB3EF70AE2F1D
:10015A00E881E07FEA2BEBBB8DE08A95F1F7DA9A2A
:10016A008DE08A95F1F7DA988DE08A95F1F760C00B
:10017A00AA93A881E9DFE881E295E883A881E4DF10
:10018A0085E88A95F1F754C0AA93E881F0E0E05A2D
:10019A00FE4FE081A981AE0FEBDF4980988022965D
:1001AA000895A2E047D0ACE0E3DFA1E043D0E0E06D
:1001BA009E2E4E2E0895AA93A881AA3011F04814B3
:1001CA0040F0E0E0EA939394A92DDEDFA881AA30FB
:1001DA0079F14394D89AA881CBDFD89829C0AA93F9
:1001EA00EAB3E06FEABBD29AD09AD19ADA98D89851
:1001FA00D9988880E881E058E0936201E881E05468
:10020A00E0936301A4E1B0E00E942B0118D017D05B
:10021A0016D0A0E299DF88EC90E00197F1F7A8E206
:10022A00A7DFA4E0A5DFA5E8A3DFA6E0A1DFB9DF89
:10023A00219608959DDFA3E0B0E00C942B01A0E382
:10024A0083DF88EC90E00197F1F70895109639F072
:10025A0080ED97E00197F1F7A8951197C9F70895EE
:00000001FF
