:0C0000000C944F000C9400000C940000C5
:10000C000C9400000C9400000C9400000C94000064
:10001C000C9400000C9400000C9400000C94000054
:10002C000C9400000C9400000C9400000C94000044
:10003C000C9400000C9400000C9400000C94000034
:10004C000C9400000C940000000000000000000064
:10005C001F000000000000001F1F00000000000037
:10006C001F1F1F00000000001F1F1F1F00000000AB
:10007C001F1F1F1F1F0000001F1F1F1F1F1F00001F
:10008C001F1F1F1F1F1F1F1F80C002006001940035
:10009C000000F894EE27ECBBF1E0FBBFEBBFE5BF33
:1000AC008DE0A2E0BB27ED938A95E9F780E094E020
:1000BC00A0E6ED930197E9F7E6E9F0E085919591DB
:1000CC00009761F0A591B59105901590BF01F001D5
:1000DC0005900D920197E1F7FB01F0CFEFE5EDBF35
:1000EC00E4E0EEBFC0E6D1E00C949800AA931A931A
:1000FC000A93EA81EE0FEE0FEE0FE0640E2F10E084
:10010C00183060F40A930395EC81FD813196EC83F1
:10011C00FD833197A491DFD01F5FF2CF1981088145
:10012C0025960895E0E0EABBEBBBE7BBE8BBE4BB7C
:10013C00E5BBE1BBE2BBE3BFE2BFECBFEFBDEEBD95
:10014C00EDBDECBDE7BDE6BDEBBDEABDE9BDE8BD6F
:10015C00E2BDE5BDE4BDE3BDE9BFE5BFE4BFEAB97F
:10016C00E0E8E8B9E0E0E0BFE6B9EDB9E6BFA4E14C
:10017C00E7D0E4E5F0E0FA93EA93A0E0B7DFECE532
:10018C00F0E0FA93EA93A1E0B1DFE4E6F0E0FA9351
:10019C00EA93A2E0ABDFECE6F0E0FA93EA93A3E09B
:1001AC00A5DFE4E7F0E0FA93EA93A4E09FDFECE745
:1001BC00F0E0FA93EA93A5E099DFE4E8F0E0FA9333
:1001CC00EA93A6E093DFECE8F0E0FA93EA93A7E079
:1001DC008DDF66247724E7E0F0E0E615F70584F080
:1001EC0044245524E3E1F0E0E415F5052CF0D4D0DB
:1001FC00F20131962F01F6CFF30131963F01EBCF8F
:10020C00D0D066247724E7E0F0E0E615F70584F01B
:10021C0044245524E3E1F0E0E415F5052CF0C5D0B9
:10022C00F20131962F01F6CFF30131963F01EBCF5E
:10023C00B8D0E7E0F0E03F0100246014700484F0D3
:10024C00E3E1F0E02F010024401450042CF0ADD079
:10025C00F20131972F01F7CFF30131973F01ECCF2A
:10026C00A0D0E7E0F0E03F0100246014700484F0BB
:10027C00E3E1F0E02F010024401450042CF08CD06A
:10028C00F20131972F01F7CFF30131973F01ECCFFA
:10029C0088D09FCFFFCFAA93EBB3EF70AE2FE8813E
:1002AC00E07FEA2BEBBB8DE08A95F1F7DA9A8DE0D3
:1002BC008A95F1F7DA988DE08A95F1F76BC0AA93DD
:1002CC00A881E9DFE881E295E883A881E4DF85E88D
:1002DC008A95F1F75FC0AA93A981F1DFD89AA8811A
:1002EC00EEDFD8980BC0AA93E881F0E0E05AFE4FFD
:1002FC00E081A981AE0FE3DFD980C88022960895F2
:10030C00A2E058D0ACE0DBDFA1E054D0E0E0CE2E90
:10031C00DE2E0895AA93A881AA3021F0E091640101
:10032C00DE1640F0E0E0EA93C394AC2DDCDFA8814C
:10033C00AA3081F1D394D89AA881C1DFD8982AC069
:10034C00AA93EAB3E06FEABBD29AD09AD19ADA9820
:10035C00D898D998E881E0936401E058E093620161
:10036C00E881E054E0936301A4E1B0E00E94EC0169
:10037C0026D025D024D0A0E28EDF88EC90E0019727
:10038C00F1F7A8E29CDFA4E09ADFA5E898DFA6E0ED
:10039C0096DFB6DF219608954A92A0E0A4DFA62D41
:1003AC00B9CFACE3B0E00C94EC014A92A1E09BDF36
:1003BC00A62DB0CF84DFA3E0B0E00C94EC01A0E359
:1003CC006ADF88EC90E00197F1F70895109639F008
:1003DC0080ED97E00197F1F7A8951197C9F708956B
:00000001FF
