:100000000C9453000C9400000C9400000C9400001D
:100010000C9400000C9400000C9400000C94000060
:100020000C9400000C9400000C9400000C94000050
:100030000C9400000C9400000C9400000C94000040
:100040000C9400000C9400000C9400000C94000030
:100050000C9400000709011F000A0400040A150996
:100060001600000002020202030000000201020466
:10007000180000000101011F00020000020202023C
:100080000300000002000205141F0000040A090416
:1000900012110F004C4E616D653A000080C00200E5
:1000A00060019C000000F894EE27ECBBF1E0FBBF80
:1000B000EBBFE5BF8DE0A2E0BB27ED938A95E9F7A2
:1000C00080E094E0A0E6ED930197E9F7EEE9F0E037
:1000D00085919591009761F0A591B5910590159046
:1000E000BF01F00105900D920197E1F7FB01F0CF00
:1000F000EFE5EDBFE4E0EEBFC0E6D1E00C949D007B
:10010000AA931A930A93EA81EE0FEE0FEE0FE064C2
:100110000E2F10E0183068F40A930395EC81FD81EE
:100120003196EC83FD833197A4910E9446011F5FB5
:10013000F1CF1981088125960895E0E0EABBEBBB79
:10014000E7BBE8BBE4BBE5BBE1BBE2BBE3BFE2BFAF
:10015000ECBFEFBDEEBDEDBDECBDE7BDE6BDEBBD5B
:10016000EABDE9BDE8BDE2BDE5BDE4BDE3BDE9BF73
:10017000E5BFE4BFEAB9E0E8E8B9E0E0E0BFE6B92E
:10018000EDB9E6BFA0E10E94BF01E4E5F0E0FA931B
:10019000EA93A0E0B5DFECE5F0E0FA93EA93A1E0A2
:1001A000AFDFE4E6F0E0FA93EA93A2E0A9DFECE641
:1001B000F0E0FA93EA93A3E0A3DFE4E7F0E0FA9338
:1001C000EA93A4E09DDFECE7F0E0FA93EA93A5E080
:1001D00097DFE4E8F0E0FA93EA93A6E091DFECE839
:1001E000F0E0FA93EA93A7E08BDFE0E0EA93A0E087
:1001F0000E946201A4E9B0E00E949B01A7E00E9476
:100200008101A6E00E948101A5E00E948101A4E095
:100210000E948101A3E00E948101A2E00E9481016D
:10022000A1E00E948101A0E00E948101FFCFFFCFE9
:10023000FFE0FA95F1F70895AAB3AF70AABBD99A77
:10024000D898F6DFDA9AF4DFA9B3DA98F1DFDA9A10
:10025000EFDFDA98A7FDF5CF0895A07FAB2BABBBFE
:10026000DA9A0E941801DA980E9418010895AA9358
:10027000D998AAB3A76FAABBBBB3BF70A881EDDFA3
:10028000A881A295EADFD99A0C94EA01AA930E9468
:100290001C01A9810E94EC01D89AA881E8DF20C046
:1002A000DA9A0E941801E9B3DA980E941801E07FF7
:1002B00008950E941801F4DFAE2FF2DFD998E2957D
:1002C000EA2B0895AA930E941C01E881F0E0E05A0D
:1002D000FE4FE081A981AE0F0E943701598048800E
:1002E000229608950E941C01A2E00E94EC01ACE05D
:1002F0000E94EC01A1E00E943701E0E04E2E5E2E4C
:100300000895AA93EF93FF93A8816894AA3019F0F7
:10031000E894571430F04394E0E0EA93A42DD2DF40
:1003200036F0539489DFD89AA8810E943701FF9153
:10033000EF910C94EA01BA93AA931A93E981FA8196
:100340003196E983FA833197E4911E2FE03019F05A
:10035000A12FD7DFF3CF188123960895AA27BB27B3
:100360001197F1F70895AA93D998AAB3A76FAABBDA
:10037000BBB3BF70A8810E942D01D99A2BC0AA934C
:10038000DA98D8987880E881E058E0936201E881B3
:10039000E054E093630124D023D022D0DFDFA0E239
:1003A000E2DFDCDFA8E220D0A4E01ED0A5E81CD06C
:1003B000AAB3AF70AABBD99A0E945901E53011F0D7
:1003C000E0E008C00E941C01A6E00E9437010E94E4
:1003D0007201E1E0219608950E9437010C941C01FE
:1003E0000E94AE01A0E3BFCF0E9437010C94AE0182
:00000001FF
