:020000000C945E
:100002002F000C9400000C9400000C9400000C943F
:1000120000000C9400000C9400000C9400000C945E
:1000220000000C9400000C9400000C9400000C944E
:1000320000000C9400000C9400000C9400000C943E
:1000420000000C9400000C9400000C9400000C942E
:10005200000080C00200600154000000F894EE2706
:10006200ECBBF1E0FBBFEBBFE5BF8DE0A2E0BB273D
:10007200ED938A95E9F780E094E0A0E6ED9301978D
:10008200E9F7E6E5F0E085919591009761F0A59199
:10009200B59105901590BF01F00105900D92019761
:1000A200E1F7FB01F0CFEFE5EDBFE4E0EEBFC0E624
:1000B200D1E00C945C00E0E0EABBEBBBE7BBE8BB41
:1000C200E4BBE5BBE1BBE2BBA4E16AD1EFE0E4BB88
:1000D200E0E7E5BB90D19C990AC09C9908C090D1F9
:1000E2009C9903C011E38CD18ED193D1F6CF83D1E9
:1000F2009D9919C09D9917C083D19D9903C012E3A0
:100102007FD181D19D9903C011E67AD17CD19D998D
:1001120003C012E675D177D19D9903C013E670D161
:1001220072D177D1E7CF67D19E991EC09E991CC02C
:1001320067D19E9903C013E363D165D19E9903C031
:1001420014E65ED160D19E9903C015E659D15BD108
:100152009E9903C016E654D156D19E9903C017E664
:100162004FD151D156D1E2CF5BD19C991EC09C99FF
:100172001CC046D19C9903C014E342D144D19C993E
:1001820003C018E63DD13FD19C9903C019E638D18E
:100192003AD19C9903C01AE633D135D19C9903C058
:1001A2001BE62ED130D135D1E2CF3AD19D991EC076
:1001B2009D991CC025D19D9903C015E321D123D15E
:1001C2009D9903C01CE61CD11ED19D9903C01DE65A
:1001D20017D119D19D9903C01EE612D114D19D9950
:1001E20003C01FE60DD10FD114D1E2CF19D19E99D0
:1001F20019C09E9917C004D19E9903C016E300D17D
:1002020002D19E9903C010E7FBD0FDD09E9903C096
:1002120011E7F6D0F8D09E9903C012E7F1D0F3D0DF
:10022200F8D0E7CF02D19C991EC09C991CC0E8D09F
:100232009C9903C017E3E4D0E6D09C9903C013E76E
:10024200DFD0E1D09C9903C014E7DAD0DCD09C99CE
:1002520003C015E7D5D0D7D09C9903C016E7D0D0FC
:10026200D2D0D7D0E2CFE1D09D991EC09D991CC0BB
:10027200C7D09D9903C018E3C3D0C5D09D9903C0D0
:1002820017E7BED0C0D09D9903C018E7B9D0BBD044
:100292009D9903C019E7B4D0B6D09D9903C01AE75F
:1002A200AFD0B1D0B6D0E2CFC0D09E990AC09E994D
:1002B20008C0A6D09E9903C019E3A2D0A4D0A9D0A9
:1002C200F6CFA89AA99AAA9AAB989D990AC09D9925
:1002D20008C096D09D9903C010E392D094D099D0D3
:1002E200F6CFA89AA99AAA9AAB989E990CC09E9901
:1002F2000AC086D09E9905C035D0A2E3B0E00E9424
:10030200270287D0F4CFE6CEFFCFAA93EBB3EF70EC
:10031200AE2FE881E07FEA2BEBBB8DE08A95F1F707
:10032200DA9A8DE08A95F1F7DA988DE08A95F1F7FD
:1003320060C0AA93A881E9DFE881E295E883A881F9
:10034200E4DF85E88A95F1F754C0AA93E881F0E0EA
:10035200E05AFE4FE081A981AE0FEBDF5980488061
:1003620022960895A2E066D0ACE0E3DFA1E062D07D
:10037200E0E04E2E5E2E0895AA93A881AA3011F0D5
:10038200571440F0E0E0EA934394A42DDEDFA88105
:10039200AA3079F15394D89AA881CBDFD89829C092
:1003A200AA93EAB3E06FEABBD29AD09AD19ADA98CA
:1003B200D898D9987880E881E058E0936201E88182
:1003C200E054E0936301A4E1B0E00E94270237D039
:1003D20036D035D0A0E299DF88EC90E00197F1F7B2
:1003E200A8E2A7DFA4E0A5DFA5E8A3DFA6E0A1DFDE
:1003F200B9DF21960895A898A99AAA9AAB9A089566
:100402002A93A0E0A2CFA12FB7DFA2E3B0E00C9421
:100412002702A4E6B0E00E9427022F5F3F4F089513
:10042200A89AA998AA9AAB9A0895A89AA99AAA985A
:10043200AB9A08957EDFA3E0B0E00C942702A0E31C
:1004420064DF88EC90E00197F1F70895109639F097
:1004520080ED97E00197F1F7A8951197C9F70895F4
:00000001FF
