:0A0000000C946D000C9400000C94A9
:10000A0000000C9400000C9400000C9400000C9466
:10001A0000000C9400000C9400000C9400000C9456
:10002A0000000C9400000C9400000C9400000C9446
:10003A0000000C9400000C9400000C9400000C9436
:10004A0000000C9400000C94000000000000000066
:10005A0000001F000000000000001F1F0000000039
:10006A0000001F1F1F00000000001F1F1F1F0000AD
:10007A0000001F1F1F1F1F0000001F1F1F1F1F1F21
:10008A0000001F1F1F1F1F1F1F1F202020202020AE
:10009A002020202020202020202020202020202056
:1000AA002020202020202020202020202020202046
:1000BA002020202020202020202020202020202036
:1000CA0020202020200080C002006001D000000013
:1000DA00F894EE27ECBBF1E0FBBFEBBFE5BF8DE088
:1000EA00A2E0BB27ED938A95E9F780E094E0A0E6C9
:1000FA00ED930197E9F7E2EDF0E08591959100978C
:10010A0061F0A591B59105901590BF01F001059098
:10011A000D920197E1F7FB01F0CFEFE5EDBFE4E0C7
:10012A00EEBFC0E6D1E00C94B600AA931A930A93E4
:10013A00EA81EE0FEE0FEE0FE0640E2F10E018309A
:10014A0060F40A930395EC81FD813196EC83FD837B
:10015A003197A491BDD01F5FF2CF198108812596EE
:10016A000895E0E0EABBEBBBE7BBE8BBE4BBE5BB59
:10017A00E1BBE2BBE3BFE2BFECBFEFBDEEBDEDBD4D
:10018A00ECBDE7BDE6BDEBBDEABDE9BDE8BDE2BD3C
:10019A00E5BDE4BDE3BDE9BFE5BFE4BFEAB9E0E818
:1001AA00E8B9E0E0E0BFE6B9EDB9E6BFA4E1D7D02F
:1001BA00E4E5F0E0FA93EA93A0E0B7DFECE5F0E0DB
:1001CA00FA93EA93A1E0B1DFE4E6F0E0FA93EA9366
:1001DA00A2E0ABDFECE6F0E0FA93EA93A3E0A5DF56
:1001EA00E4E7F0E0FA93EA93A4E09FDFECE7F0E0BB
:1001FA00FA93EA93A5E099DFE4E8F0E0FA93EA9348
:10020A00A6E093DFECE8F0E0FA93EA93A7E08DDF4B
:10021A00E0E0EA93A0E064D0A4E9B0E08DD0A7E0E2
:10022A0076D0A6E074D0A5E072D0A4E070D0A3E0A6
:10023A006ED0A2E06CD0A1E06AD0A0E068D04424DD
:10024A005524E9E0F0E0E415F50504F16624772485
:10025A0088249924E7E0F0E0E815F9059CF04A9231
:10026A00A62D3ED0A82D53D04A92A62DAF5F38D0E6
:10027A00A82D4DD0A5E0B0E00E94EB01F401319623
:10028A004F01E8CFF20131962F01DBCFD8CFFFCF54
:10029A00AA93EBB3EF70AE2FE881E07FEA2BEBBBBA
:1002AA008DE08A95F1F7DA9A8DE08A95F1F7DA9876
:1002BA008DE08A95F1F77CC0AA93A881E9DFE881ED
:1002CA00E295E883A881E4DF85E88A95F1F770C0B2
:1002DA00AA93A981F1DFD89AA881EEDFD8980BC03A
:1002EA00AA93E881F0E0E05AFE4FE081A981AE0FBF
:1002FA00E3DFB980A88022960895A2E05BD0ACE043
:10030A00DBDFA1E057D0E0E0AE2EBE2E0895AA931F
:10031A00A881AA3011F0BD1448F0E0E0EA93A39452
:10032A00AA2DDEDFA881AA3009F442C0B394D89A74
:10033A00A881C2DFD8983CC0BA93AA931A93E981DC
:10034A00FA813196E983FA833197E4911E2FE030DE
:10035A0019F0A12FDCDFF3CF188123960895AA9311
:10036A00EAB3E06FEABBD29AD09AD19ADA98D898CF
:10037A00D998D880E881E058E0936201E881E05496
:10038A00E0936301A4E1B0E00E94EB0118D017D01A
:10039A0016D0A0E27DDF88EC90E00197F1F7A8E2A1
:1003AA008BDFA4E089DFA5E887DFA6E085DFA5DF8C
:1003BA002196089581DFA3E0B0E00C94EB01A0E35D
:1003CA0067DF88EC90E00197F1F70895109639F00D
:1003DA0080ED97E00197F1F7A8951197C9F708956D
:00000001FF
