:0E0000000C942F000C9400000C9400000C9443
:10000E0000000C9400000C9400000C9400000C9462
:10001E0000000C9400000C9400000C9400000C9452
:10002E0000000C9400000C9400000C9400000C9442
:10003E0000000C9400000C9400000C9400000C9432
:10004E0000000C94000080C002006001540000000B
:10005E00F894EE27ECBBF1E0FBBFEBBFE5BF8DE004
:10006E00A2E0BB27ED938A95E9F780E094E0A0E645
:10007E00ED930197E9F7E6E5F0E08591959100970C
:10008E0061F0A591B59105901590BF01F001059015
:10009E000D920197E1F7FB01F0CFEFE5EDBFE4E044
:1000AE00EEBFC0E6D1E00C945C00E0E0EABBEBBB37
:1000BE00E7BBE8BBE4BBE5BBE1BBE2BBE3BFE2BF32
:1000CE00ECBFEFBDEEBDEDBDECBDE7BDE6BDEBBDDE
:1000DE00EABDE9BDE8BDE2BDE5BDE4BDE3BDE9BFF6
:1000EE00E5BFE4BFEAB9E0E8E8B9E0E0E0BFE6B9B1
:1000FE00EDB9E6BFA8E06DD0EFEFE4BB88249924FC
:10010E00EFEFF0E05F01C8991BC02401EFEFF0E0C4
:10011E00E415F505ACF0420188D05401C89B0CC023
:10012E0025010024401450043CF04201C8997DD0B2
:10013E00F20131972F01F5CFF20131962F01E6CF63
:10014E00C89B1BC02501002440145004B4F052017A
:10015E006CD04501C8990DC02401EFEFF0E0E41515
:10016E00F5053CF04201C89B60D0F20131962F019B
:10017E00F4CFF20131972F01E6CFC5CFFFCFAA936F
:10018E00EBB3EF70AE2FE881E07FEA2BEBBB8DE097
:10019E008A95F1F7DA9A8DE08A95F1F7DA988DE083
:1001AE008A95F1F740C0AA93A881E9DFE881E2952C
:1001BE00E883A881E4DF85E88A95F1F734C0A2E0F0
:1001CE0039D0ACE0F0DFA1E035D0E0E0CE2EDE2E6F
:1001DE000895AA93EAB3E06FEABBD29AD09AD19A65
:1001EE00DA98D898D998E881E0936401E058E093C2
:1001FE006201E881E054E0936301A4E1B0E00E9463
:10020E002D011DD01CD01BD0A0E2B9DF88EC90E0F0
:10021E000197F1F7A8E2C7DFA4E0C5DFA5E8C3DFC9
:10022E00A6E0C1DFCCDF2196089545BAA4E6B0E082
:10023E000C942D01B8DFA3E0B0E00C942D01A0E3E7
:10024E009EDF88EC90E00197F1F70895109639F053
:10025E0080ED97E00197F1F7A8951197C9F70895EA
:00000001FF
