:080000000C942F000C94000089
:100008000C9400000C9400000C9400000C94000068
:100018000C9400000C9400000C9400000C94000058
:100028000C9400000C9400000C9400000C94000048
:100038000C9400000C9400000C9400000C94000038
:100048000C9400000C9400000C94000000000100C7
:10005800020054000000F894EE27ECBBF1E0FBBF6F
:10006800EBBFE5BF8DE0A2E0BB27ED938A95E9F7EA
:1000780080E094E0A0E6ED930197E9F7E6E5F0E08B
:1000880085919591009761F0A591B591059015908E
:10009800BF01F00105900D920197E1F7FB01F0CF48
:1000A800EFE5EDBFE4E0EEBFC0E6D1E00C945C0004
:1000B8002297E5E5E883EAEAE983E0E0EABBEBBBFF
:1000C800E7BBE8BBEFEFE4BBE0E0E5BBE1BBE2BBCD
:1000D800E3BFE2BFECBFEFBDEEBDEDBDECBDE7BDDC
:1000E800E6BDEBBDEABDE9BDE8BDE2BDE5BDE4BDE9
:1000F800E3BDE9BFE5BFE4BFEAB9E0E8E8B9E0E09D
:10010800E0BFE6B9EDB9E6BF49B2552403D002D045
:10011800FDCFFFCFE1E0F0E03F01DE01A60DB71D06
:10012800EC91E5BBACE3B0E00C949A00109639F082
:1001380080ED97E00197F1F7A8951197C9F7089511
:00000001FF
